{
  "abi": [
    {
      "type": "constructor",
      "inputs": [],
      "stateMutability": "nonpayable"
    },
    {
      "type": "function",
      "name": "addUser",
      "inputs": [
        {
          "name": "_name",
          "type": "string",
          "internalType": "string"
        },
        {
          "name": "_firstName",
          "type": "string",
          "internalType": "string"
        },
        {
          "name": "_walletAddress",
          "type": "address",
          "internalType": "address"
        }
      ],
      "outputs": [],
      "stateMutability": "nonpayable"
    },
    {
      "type": "function",
      "name": "getUserByAddress",
      "inputs": [
        {
          "name": "_walletAddress",
          "type": "address",
          "internalType": "address"
        }
      ],
      "outputs": [
        {
          "name": "",
          "type": "tuple",
          "internalType": "struct ValidateWallet.User",
          "components": [
            {
              "name": "id",
              "type": "uint256",
              "internalType": "uint256"
            },
            {
              "name": "name",
              "type": "string",
              "internalType": "string"
            },
            {
              "name": "firstName",
              "type": "string",
              "internalType": "string"
            },
            {
              "name": "walletAddress",
              "type": "address",
              "internalType": "address"
            }
          ]
        }
      ],
      "stateMutability": "view"
    },
    {
      "type": "function",
      "name": "getUserById",
      "inputs": [
        {
          "name": "_id",
          "type": "uint256",
          "internalType": "uint256"
        }
      ],
      "outputs": [
        {
          "name": "",
          "type": "tuple",
          "internalType": "struct ValidateWallet.User",
          "components": [
            {
              "name": "id",
              "type": "uint256",
              "internalType": "uint256"
            },
            {
              "name": "name",
              "type": "string",
              "internalType": "string"
            },
            {
              "name": "firstName",
              "type": "string",
              "internalType": "string"
            },
            {
              "name": "walletAddress",
              "type": "address",
              "internalType": "address"
            }
          ]
        }
      ],
      "stateMutability": "view"
    },
    {
      "type": "function",
      "name": "isWalletValidated",
      "inputs": [
        {
          "name": "_walletAddress",
          "type": "address",
          "internalType": "address"
        }
      ],
      "outputs": [
        {
          "name": "",
          "type": "bool",
          "internalType": "bool"
        }
      ],
      "stateMutability": "view"
    },
    {
      "type": "function",
      "name": "owner",
      "inputs": [],
      "outputs": [
        {
          "name": "",
          "type": "address",
          "internalType": "address"
        }
      ],
      "stateMutability": "view"
    },
    {
      "type": "function",
      "name": "renounceOwnership",
      "inputs": [],
      "outputs": [],
      "stateMutability": "nonpayable"
    },
    {
      "type": "function",
      "name": "transferOwnership",
      "inputs": [
        {
          "name": "newOwner",
          "type": "address",
          "internalType": "address"
        }
      ],
      "outputs": [],
      "stateMutability": "nonpayable"
    },
    {
      "type": "function",
      "name": "userCount",
      "inputs": [],
      "outputs": [
        {
          "name": "",
          "type": "uint256",
          "internalType": "uint256"
        }
      ],
      "stateMutability": "view"
    },
    {
      "type": "event",
      "name": "OwnershipTransferred",
      "inputs": [
        {
          "name": "previousOwner",
          "type": "address",
          "indexed": true,
          "internalType": "address"
        },
        {
          "name": "newOwner",
          "type": "address",
          "indexed": true,
          "internalType": "address"
        }
      ],
      "anonymous": false
    },
    {
      "type": "event",
      "name": "UserAdded",
      "inputs": [
        {
          "name": "userAddress",
          "type": "address",
          "indexed": true,
          "internalType": "address"
        },
        {
          "name": "id",
          "type": "uint256",
          "indexed": false,
          "internalType": "uint256"
        }
      ],
      "anonymous": false
    },
    {
      "type": "error",
      "name": "OwnableInvalidOwner",
      "inputs": [
        {
          "name": "owner",
          "type": "address",
          "internalType": "address"
        }
      ]
    },
    {
      "type": "error",
      "name": "OwnableUnauthorizedAccount",
      "inputs": [
        {
          "name": "account",
          "type": "address",
          "internalType": "address"
        }
      ]
    }
  ],
  "bytecode": {
    "object": "0x6080604052348015600e575f5ffd5b503380603357604051631e4fbdf760e01b81525f600482015260240160405180910390fd5b603a81603f565b50608e565b5f80546001600160a01b038381166001600160a01b0319831681178455604051919092169283917f8be0079c531659141344cd1fd0a4f28419497f9722a3daafe3b4186f6b6457e09190a35050565b610b7d8061009b5f395ff3fe608060405234801561000f575f5ffd5b5060043610610085575f3560e01c8063715018a611610058578063715018a6146100ed5780638da5cb5b146100f5578063e054d2261461010f578063f2fde38b1461014a575f5ffd5b806307973ccf146100895780634b610e7a146100a557806369c212f6146100ba5780636ed6da9e146100da575b5f5ffd5b61009260015481565b6040519081526020015b60405180910390f35b6100b86100b33660046108ad565b61015d565b005b6100cd6100c8366004610921565b6102ee565b60405161009c919061096f565b6100cd6100e83660046109d3565b61052d565b6100b861072d565b5f546040516001600160a01b03909116815260200161009c565b61013a61011d366004610921565b6001600160a01b03165f9081526004602052604090205460ff1690565b604051901515815260200161009c565b6100b8610158366004610921565b610740565b6001600160a01b0381165f9081526004602052604090205460ff16156101ca5760405162461bcd60e51b815260206004820152601860248201527f57616c6c657420616c72656164792076616c696461746564000000000000000060448201526064015b60405180910390fd5b6040805160808101825260018054825260208083018781528385018790526001600160a01b038616606085018190525f908152600290925293902082518155925191928392909182019061021e9082610a68565b50604082015160028201906102339082610a68565b5060609190910151600391820180546001600160a01b039283166001600160a01b031991821617909155600180545f90815260209485526040808220805495891695909416851790935592835260049093528120805460ff1916831790558154919061029e83610b23565b9190505550816001600160a01b03167f25ddd06f7eaeb83bb3fbcaa231d4b89e2d7bcd781043983661920061e755a7f06001546040516102e091815260200190565b60405180910390a250505050565b61032060405180608001604052805f815260200160608152602001606081526020015f6001600160a01b031681525090565b81336001600160a01b038216146103695760405162461bcd60e51b815260206004820152600d60248201526c139bdd08185d5d1bdc9a5e9959609a1b60448201526064016101c1565b6001600160a01b0383165f9081526004602052604090205460ff166103c35760405162461bcd60e51b815260206004820152601060248201526f15d85b1b195d081b9bdd08199bdd5b9960821b60448201526064016101c1565b6001600160a01b0383165f908152600260209081526040918290208251608081019093528054835260018101805491928401916103ff906109ea565b80601f016020809104026020016040519081016040528092919081815260200182805461042b906109ea565b80156104765780601f1061044d57610100808354040283529160200191610476565b820191905f5260205f20905b81548152906001019060200180831161045957829003601f168201915b5050505050815260200160028201805461048f906109ea565b80601f01602080910402602001604051908101604052809291908181526020018280546104bb906109ea565b80156105065780601f106104dd57610100808354040283529160200191610506565b820191905f5260205f20905b8154815290600101906020018083116104e957829003601f168201915b5050509183525050600391909101546001600160a01b031660209091015291505b50919050565b61055f60405180608001604052805f815260200160608152602001606081526020015f6001600160a01b031681525090565b61056761077d565b5f828152600360205260409020546001600160a01b03166105bb5760405162461bcd60e51b815260206004820152600e60248201526d155cd95c881b9bdd08199bdd5b9960921b60448201526064016101c1565b5f828152600360209081526040808320546001600160a01b031683526002825291829020825160808101909352805483526001810180549192840191610600906109ea565b80601f016020809104026020016040519081016040528092919081815260200182805461062c906109ea565b80156106775780601f1061064e57610100808354040283529160200191610677565b820191905f5260205f20905b81548152906001019060200180831161065a57829003601f168201915b50505050508152602001600282018054610690906109ea565b80601f01602080910402602001604051908101604052809291908181526020018280546106bc906109ea565b80156107075780601f106106de57610100808354040283529160200191610707565b820191905f5260205f20905b8154815290600101906020018083116106ea57829003601f168201915b5050509183525050600391909101546001600160a01b031660209091015290505b919050565b61073561077d565b61073e5f6107a9565b565b61074861077d565b6001600160a01b03811661077157604051631e4fbdf760e01b81525f60048201526024016101c1565b61077a816107a9565b50565b5f546001600160a01b0316331461073e5760405163118cdaa760e01b81523360048201526024016101c1565b5f80546001600160a01b038381166001600160a01b0319831681178455604051919092169283917f8be0079c531659141344cd1fd0a4f28419497f9722a3daafe3b4186f6b6457e09190a35050565b634e487b7160e01b5f52604160045260245ffd5b5f82601f83011261081b575f5ffd5b813567ffffffffffffffff811115610835576108356107f8565b604051601f8201601f19908116603f0116810167ffffffffffffffff81118282101715610864576108646107f8565b60405281815283820160200185101561087b575f5ffd5b816020850160208301375f918101602001919091529392505050565b80356001600160a01b0381168114610728575f5ffd5b5f5f5f606084860312156108bf575f5ffd5b833567ffffffffffffffff8111156108d5575f5ffd5b6108e18682870161080c565b935050602084013567ffffffffffffffff8111156108fd575f5ffd5b6109098682870161080c565b92505061091860408501610897565b90509250925092565b5f60208284031215610931575f5ffd5b61093a82610897565b9392505050565b5f81518084528060208401602086015e5f602082860101526020601f19601f83011685010191505092915050565b60208152815160208201525f60208301516080604084015261099460a0840182610941565b90506040840151601f198483030160608501526109b18282610941565b606095909501516001600160a01b031660809490940193909352509192915050565b5f602082840312156109e3575f5ffd5b5035919050565b600181811c908216806109fe57607f821691505b60208210810361052757634e487b7160e01b5f52602260045260245ffd5b601f821115610a6357805f5260205f20601f840160051c81016020851015610a415750805b601f840160051c820191505b81811015610a60575f8155600101610a4d565b50505b505050565b815167ffffffffffffffff811115610a8257610a826107f8565b610a9681610a9084546109ea565b84610a1c565b6020601f821160018114610ac8575f8315610ab15750848201515b5f19600385901b1c1916600184901b178455610a60565b5f84815260208120601f198516915b82811015610af75787850151825560209485019460019092019101610ad7565b5084821015610b1457868401515f19600387901b60f8161c191681555b50505050600190811b01905550565b5f60018201610b4057634e487b7160e01b5f52601160045260245ffd5b506001019056fea2646970667358221220b089fa84629efe5c9d492279697ef70f89ea791ddf525ac8196de0e6d2a2e21d64736f6c634300081c0033",
    "linkReferences": {}
  },
  "methodIdentifiers": {
    "addUser(string,string,address)": "4b610e7a",
    "getUserByAddress(address)": "69c212f6",
    "getUserById(uint256)": "6ed6da9e",
    "isWalletValidated(address)": "e054d226",
    "owner()": "8da5cb5b",
    "renounceOwnership()": "715018a6",
    "transferOwnership(address)": "f2fde38b",
    "userCount()": "07973ccf"
  },
  "id": 22
}